:100000000C9462000C948A000C948A000C948A0070
:100010000C948A000C948A000C948A000C948A0038
:100020000C948A000C948A000C948A000C948A0028
:100030000C948A000C948A000C948A000C948A0018
:100040000C94EE010C948A000C94C4040C94F604F5
:100050000C948A000C948A000C948A000C948A00F8
:100060000C948A000C948A00000000080002010031
:100070000003040700000000000000000102040863
:100080001020408001020408102001020408102002
:10009000040404040404040402020202020203032E
:1000A00003030303000000002300260029000000D2
:1000B0000000250028002B0000000000240027007D
:1000C0002A00260511241FBECFEFD8E0DEBFCDBF2A
:1000D00011E0A0E0B1E0E0EFFBE002C005900D927E
:1000E000AE37B107D9F722E0AEE7B1E001C01D920B
:1000F000A532B207E1F710E0C4ECD0E004C02297CB
:10010000FE010E94F205C23CD107C9F70E946A05B0
:100110000C94F6050C94000061E0809113010E949C
:10012000E70261E0809111010E94E70261E08091A5
:100130000B010E94E70261E0809109010E94E70241
:1001400061E0809107010E94E70261E08091050172
:100150000E94E70262E080910F010E94E70262E0E4
:1001600080910D010E94E70260E0809103010E94EE
:10017000E70260E0809101010E94E70226E040E88A
:1001800055E260E070E088E891E00E94620465E179
:1001900071E088E891E00C94BB050C948C0061E060
:1001A00080910B010C94200360E080910B010C9472
:1001B000200361E0809109010C94200360E08091AC
:1001C00009010C94200361E0809107010C94200345
:1001D00060E0809107010C94200361E080910501AB
:1001E0000C94200360E0809105010C94200361E0F1
:1001F000809113010C94200360E0809113010C9412
:100200002003809103010E945603019731F48091ED
:1002100001010E945603019731F1809103010E9470
:100220005603019731F4809101010E945603892BF6
:1002300069F1809103010E945603892B31F480916A
:1002400001010E9456030197A1F1809103010E94D0
:100250005603892B09F04CC0809101010E9456037E
:10026000892BD1F108950E94FC000E94ED000E94AC
:10027000E80064E670E080E090E00E945B026DE1DF
:1002800071E088E891E00E94BB05C7CF0E94F700AB
:100290000E94E3000E94F20064E670E080E090E0DB
:1002A0000E945B0267E271E088E891E00E94BB0572
:1002B000C0CF0E94FC000E94ED000E94E80064E6AE
:1002C00070E080E090E00E945B026FE271E088E8FD
:1002D00091E00E94BB05B9CF64E670E080E090E059
:1002E0000E945B026AE371E088E891E00C94BB0530
:1002F000089580910F010E945603892B31F480915B
:10030000000191E0892780930001089580910D01FB
:100310000E945603892B31F480917E0191E0892758
:1003200080937E0108950E9479010E948601809148
:10033000000181113CC064E670E080E090E00E9422
:100340005B0265E471E088E891E00E94BB050E94D1
:10035000DE000E94CF0080917E01882391F064E648
:1003600070E080E090E00E945B026BE271E088E860
:1003700091E00E94BB050E94F7000E94E3000E94EA
:10038000F20080917E01811112C064E670E080E08D
:1003900090E00E945B0261E271E088E891E00E94D7
:1003A000BB050E94FC000E94ED000E94E8008091C5
:1003B0000001882391F00E94010164E670E080E072
:1003C00090E00E945B0263E571E088E891E00E94A2
:1003D000BB050E94D9000C94D40008951F920F927F
:1003E0000FB60F9211242F933F938F939F93AF9348
:1003F000BF938091800190918101A0918201B09181
:10040000830130917F0123E0230F2D3720F40196E3
:10041000A11DB11D05C026E8230F0296A11DB11D27
:1004200020937F018093800190938101A0938201AA
:10043000B09383018091840190918501A091860100
:10044000B09187010196A11DB11D80938401909305
:100450008501A0938601B0938701BF91AF919F91D1
:100460008F913F912F910F900FBE0F901F90189575
:100470003FB7F8948091840190918501A091860105
:10048000B091870126B5A89B05C02F3F19F00196B2
:10049000A11DB11D3FBF6627782F892F9A2F620FAC
:1004A000711D811D911D42E0660F771F881F991FE6
:1004B0004A95D1F70895CF92DF92EF92FF92CF93B2
:1004C000DF936B017C010E943802EB01C114D1045F
:1004D000E104F10489F00E94CD050E9438026C1BF2
:1004E0007D0B683E734090F381E0C81AD108E108A3
:1004F000F108C851DC4FEACFDF91CF91FF90EF9028
:10050000DF90CF900895789484B5826084BD84B5DF
:10051000816084BD85B5826085BD85B5816085BDFE
:10052000EEE6F0E0808181608083E1E8F0E0108217
:10053000808182608083808181608083E0E8F0E058
:10054000808181608083E1EBF0E080818460808342
:10055000E0EBF0E0808181608083EAE7F0E0808179
:1005600084608083808182608083808181608083D9
:100570008081806880831092C1000895833081F06B
:1005800028F4813099F08230A1F008958730A9F0E5
:100590008830B9F08430D1F4809180008F7D03C021
:1005A000809180008F7780938000089584B58F7745
:1005B00002C084B58F7D84BD08958091B0008F778F
:1005C00003C08091B0008F7D8093B0000895CF93D9
:1005D000DF9390E0FC01E458FF4F2491FC01E057C9
:1005E000FF4F8491882349F190E0880F991FFC0107
:1005F000E854FF4FA591B49182559F4FFC01C591DE
:10060000D4919FB7611108C0F8948C9120958223F2
:100610008C93888182230AC0623051F4F8948C91C3
:10062000322F309583238C938881822B888304C05A
:10063000F8948C91822B8C939FBFDF91CF9108957A
:100640000F931F93CF93DF931F92CDB7DEB7282F61
:1006500030E0F901E859FF4F8491F901E458FF4F68
:100660001491F901E057FF4F04910023C9F088234A
:1006700021F069830E94BE026981E02FF0E0EE0F55
:10068000FF1FE255FF4FA591B4919FB7F8948C914D
:10069000611103C01095812301C0812B8C939FBFF2
:1006A0000F90DF91CF911F910F910895CF93DF931A
:1006B000282F30E0F901E859FF4F8491F901E458FF
:1006C000FF4FD491F901E057FF4FC491CC2391F033
:1006D00081110E94BE02EC2FF0E0EE0FFF1FEC55DF
:1006E000FF4FA591B4912C912D2381E090E021F44E
:1006F00080E002C080E090E0DF91CF910895FC019E
:10070000818D228D90E0805C9F4F821B91098F73B9
:1007100099270895FC01918D828D981731F0828D73
:10072000E80FF11D858D90E008958FEF9FEF0895FC
:10073000FC01918D828D981761F0828DDF01A80FE9
:10074000B11D5D968C91928D9F5F9F73928F90E00B
:1007500008958FEF9FEF08958CE195E0892B49F084
:1007600080E090E0892B29F00E941C0581110C94F7
:1007700000000895FC01848DDF01A80FB11DA35A6C
:10078000BF4F2C91848D90E001968F739927848FB1
:10079000A689B7892C93A089B1898C9180648C93A8
:1007A000938D848D981306C00288F389E02D808193
:1007B0008F7D80830895CF93DF93EC01888D88230C
:1007C000C9F0EA89FB89808185FD05C0A889B989BE
:1007D0008C9186FD0FC00FB607FCF5CF808185FF99
:1007E000F2CFA889B9898C9185FFEDCFCE010E9407
:1007F000BA03E7CFDF91CF910895CF92DF92FF92B6
:100800000F931F93CF93DF931F92CDB7DEB76C0189
:1008100081E0D60158968C9358975B969C915B9794
:100820005C968C915C97981307C05096ED91FC9163
:100830005197808185FD2EC0F601038D10E00F5F7A
:100840001F4F0F731127F02EF601848DF81211C07F
:100850000FB607FCF9CFD6015096ED91FC91519758
:10086000808185FFF1CFC60169830E94BA03698147
:10087000EBCF838DE80FF11DE35AFF4F6083D60164
:100880005B960C935B975296ED91FC915397808108
:1008900080620CC0D6015696ED91FC91579760830B
:1008A0005096ED91FC91519780818064808381E026
:1008B00090E00F90DF91CF911F910F91FF90DF900B
:1008C000CF900895BF92CF92DF92EF92FF92CF9395
:1008D000DF93EC016A017B01B22EE889F98982E09D
:1008E0008083411581EE580761057105A1F060E034
:1008F00079E08DE390E0A70196010E94CE0521509A
:100900003109410951095695479537952795211584
:1009100080E1380798F0E889F989108260E874E886
:100920008EE190E0A70196010E94CE052150310989
:10093000410951095695479537952795EC85FD85D1
:100940003083EE85FF852083188EEC89FD89B08287
:10095000EA89FB89808180618083EA89FB898081C3
:1009600088608083EA89FB89808180688083EA8946
:10097000FB8980818F7D8083DF91CF91FF90EF9005
:10098000DF90CF90BF9008951F920F920FB60F92F5
:1009900011242F938F939F93EF93FF93E0919801EE
:1009A000F09199018081E0919E01F0919F0182FD7B
:1009B00012C090818091A1018F5F8F732091A2015D
:1009C000821751F0E091A101F0E0E857FE4F958FBA
:1009D0008093A10101C08081FF91EF919F918F9140
:1009E0002F910F900FBE0F901F9018951F920F928E
:1009F0000FB60F9211242F933F934F935F936F93F2
:100A00007F938F939F93AF93BF93EF93FF9388E868
:100A100091E00E94BA03FF91EF91BF91AF919F9136
:100A20008F917F916F915F914F913F912F910F9097
:100A30000FBE0F901F90189588E891E00E947F03E9
:100A400021E0892B09F420E0822F089510928B0178
:100A500010928A0188EE93E0A0E0B0E080938C01D0
:100A600090938D01A0938E01B0938F0181E691E068
:100A7000909389018093880185EC90E09093950193
:100A80008093940184EC90E0909397018093960179
:100A900080EC90E0909399018093980181EC90E034
:100AA00090939B0180939A0182EC90E090939D013A
:100AB00080939C0186EC90E090939F0180939E012F
:100AC0001092A1011092A2011092A3011092A40110
:100AD000089508950E9483020E9469050E94CD0036
:100AE000CCEAD3E00E9493012097E1F30E94AC038B
:100AF000F9CFCF92DF92EF92FF920F931F93CF9394
:100B0000DF936C017A01EB01E60EF71E00E010E0C6
:100B1000CE15DF0561F06991D601ED91FC91019050
:100B2000F081E02DC6010995080F191FF1CFC8010A
:100B3000DF91CF911F910F91FF90EF90DF90CF90B9
:100B400008956115710581F0DB010D900020E9F732
:100B5000AD0141505109461B570BDC01ED91FC9151
:100B60000280F381E02D099480E090E008956DE625
:100B700071E00C94A1050F931F93CF93DF93EC01C9
:100B80000E94A1058C01CE010E94B705800F911F24
:100B9000DF91CF911F910F9108950895A1E21A2E30
:100BA000AA1BBB1BFD010DC0AA1FBB1FEE1FFF1F11
:100BB000A217B307E407F50720F0A21BB30BE40B61
:100BC000F50B661F771F881F991F1A9469F76095A8
:100BD0007095809590959B01AC01BD01CF01089562
:100BE000EE0FFF1F0590F491E02D0994F894FFCFCC
:100BF00001090008000500040002000300070006C8
:100C0000000F000E007374617274656400415554E6
:100C10004F534F4C4152004155544F4543470041BB
:100C200055544F534F4C41523200444F204E4F5475
:100C300048494E47006D616E75616C207374617434
:100C40007573006175746F206D6F6465000000003E
:100C500000FD0379057F0398038A03DB030D0A0077
:0E0C60006E616E00696E66006F7666002E0093
:00000001FF
